:100000000C9466000C9483000C9483000C94830081
:100010000C9483000C9483000C94A6070C9483002A
:100020000C9483000C9483000C9483000C94830044
:100030000C9483000C9483000C9483000C94830034
:100040000C942D010C9483000C9483000C94830079
:100050000C9483000C9483000C9483000C94830014
:100060000C9483000C9483002A0C2A0C2A0C390C63
:10007000D90CE70C2A0C2A0C390CD90C000000080A
:10008000000201000003040700000000000000005F
:1000900000000000250028002B00000000002400C4
:1000A00027002A00040404040404040402020202D7
:1000B000020203030303030301020408102040802B
:1000C00001020408102001020408102011241FBEA0
:1000D000CFEFD8E0DEBFCDBF11E0A0E0B1E0E8EFA8
:1000E000F6E202C005900D92A635B107D9F721E0DE
:1000F000A6E5B1E001C01D92AD3EB207E1F70E9456
:1001000065100C947A130C940000E0917A01F09140
:100110007B018081811103C08FEF9FEF0CC0E091C4
:100120007A01F0917B010580F681E02D0680F78150
:10013000E02D8281938190937101809370010895E5
:10014000CF93DF93EC0160E08E810E947F0461E039
:100150008E810E947F0460E08E810E947F048BE884
:1001600091E00197F1F7DF91CF9108958F929F92DF
:10017000AF92BF92EF92FF920F931F93CF93DF93B3
:10018000CDB7DEB727970FB6F894DEBF0FBECDBF51
:100190008C017C0184E4E80EF11C0E947105F701DA
:1001A00080809180A280B380DC01CB0188199909FD
:1001B000AA09BB09C297A105B10578F3F894F80123
:1001C000EE5BFF4F0190F081E02D81918B838BB12D
:1001D00084608C838BB18B7F8D838D818E8388E04F
:1001E0008F8388E190E09A8389835C811B812F81D2
:1001F0003E814D8169817A81ABE2B0E0CB015A9AB0
:1002000017FD352F2A9500003C93342F31F0111F34
:1002100000C05A9800C00000F2CF28E011915A980F
:1002200000C000008A9559F778940E947105F70183
:10023000608371838283938327960FB6F894DEBF21
:100240000FBECDBFDF91CF911F910F91FF90EF9027
:10025000BF90AF909F908F9008951F920F920FB60E
:100260000F9211242F933F938F939F93AF93BF933C
:100270008091640190916501A0916601B091670140
:100280003091630123E0230F2D3720F40196A11D47
:10029000B11D05C026E8230F0296A11DB11D2093B4
:1002A00063018093640190936501A0936601B0930C
:1002B00067018091680190916901A0916A01B091F4
:1002C0006B010196A11DB11D809368019093690196
:1002D000A0936A01B0936B01BF91AF919F918F91F1
:1002E0003F912F910F900FBE0F901F901895259A58
:1002F0002D9A2FEF80E792E0215080409040E1F767
:1003000000C000001D9AF5CFC0915C01D0915D0145
:1003100080E090E0DE01AE5BBF4F2C813D81821713
:100320009307B0F4883090F4FC01FF279F01220F5F
:10033000331FE20FF31F2D913C911197E20FF31F32
:100340002EA920832FA921832EA922830196E5CFF0
:10035000EA81FB81DE01AE5BBF4FE83088F4FF2706
:10036000CF01880F991FE80FF91F8D919C9111976C
:10037000E80FF91F89AD80838AAD818389AD8283BF
:100380008A819B8101969B838A832C813D81FE011A
:10039000E05CFF4F8217930739F41B821A82808139
:1003A0009181019791838083008111818D919C912E
:1003B000892B19F0CE010E94B600012B91F4CE01D9
:1003C0000E94510468EC70E080E090E00E942D04EF
:1003D000DC01CB01C296A11DB11D90930101809358
:1003E0000001C0910001D091010184E0D695C7952C
:1003F0008A95E1F7209751F00E94A00760E0CE01B6
:100400000E94F60A0E942C0981117ECF0E946F087B
:100410007BCF00E010E080916001882349F10E94C9
:10042000A007C09185010E942C09CC23A1F30FB62F
:10043000F8940F92E0918A01F0918B01C681D781E7
:10044000CE0102960E94A9078091BE01815080933F
:10045000BE01809160018150809360010F900FBEBA
:100460008F89988D0E946B0BCE010E946B0BD3CFAE
:1004700080919701823010F00E946F0801151105DC
:1004800051F20E940000C7CFCF92DF92EF92FF920D
:100490000F931F93CF93DF937C016C0187E0C80E0D
:1004A000D11CC0E0D0E0062F10E0B8010C2E02C035
:1004B000759567950A94E2F76170F60181916F0175
:1004C0000E947F042196C430D10579F7C701DF91DE
:1004D000CF911F910F91FF90EF90DF90CF900C94F0
:1004E000A000CF92DF92EF92FF920F931F93CF93D2
:1004F000DF93EC01F62E642F8C810E947F048D81A6
:100500008F3F19F060E00E947F048F850F2D10E06F
:1005100084FF25C06E0187E0C80ED11CE12CF12CB0
:10052000B8010E2C02C0759567950A94E2F76170C8
:10053000F60181916F010E947F04FFEFEF1AFF0A1D
:1005400088E0E816F10461F7CE01DF91CF911F91A9
:100550000F91FF90EF90DF90CF900C94A000B80126
:1005600084E0759567958A95E1F7CE010E94440273
:100570006F2DCE01DF91CF911F910F91FF90EF90E2
:10058000DF90CF900C94440241E00E94710281E020
:1005900090E00895CF92DF92EF92FF920F931F9316
:1005A000CF93DF936DE070EF8EEF9AEC0E94C6114F
:1005B00088E190E00E943812EC011B821A8280E4EC
:1005C00091E09983888392E09C8381E08D831E82F1
:1005D0009F838887198687E08A8786E08B8785E0F6
:1005E0008C8784E08D8783E08E8780E18F8761E050
:1005F000CE010E94CB04D0935B01C0935A0162E00C
:10060000CE010E94CB046FE370E080E090E00E9496
:100610002D046B017C0188E090E00E943812EC010F
:100620000E94EF039F838E83D982C882D0935901A1
:10063000C09358016FE370E080E090E00E942D04C9
:100640006B017C0188E090E00E943812EC010E946E
:10065000EF039F838E83D982C882D0935701C093C2
:100660005601C0915601D0915701E0915801F09187
:10067000590120813181888199812817390749F4EE
:100680006FE370E080E090E00E942D04798368833E
:10069000E8CF65E070E080E090E00E942D04DC018E
:1006A000CB010496A11DB11D9D838C8388E490E04D
:1006B0000E943812EC0180E3ECE0F1E0DE011696D6
:1006C00001900D928A95E1F71EAA1FAA18AE82E04A
:1006D0000E94D00360E082E00E947F0488E190E005
:1006E0000E943812FE01EE5BFF4F918380830097DA
:1006F00041F028E1FC0111922A95E9F7CE010E9410
:10070000B600CE010E94510488E090E09D838C8366
:10071000D0935D01C0935C01CE010E94510400E0C2
:1007200010E021E040E850E065E471E084E891E009
:100730000E94CB0EDF91CF911F910F91FF90EF9010
:10074000DF90CF900895CF92DF92EF92FF920F93B8
:100750001F93CF93DF936C017A018B01C0E0D0E04F
:10076000CE15DF0589F0D8016D918D01D601ED918F
:10077000FC910190F081E02DC6010995892B11F4BF
:100780007E0102C02196ECCFC701DF91CF911F916E
:100790000F91FF90EF90DF90CF9008950E94651326
:1007A00090E0FC01E854FF4F2491FC01EC55FF4F11
:1007B0008491882399F090E0880F991FFC01E656F8
:1007C000FF4FA591B491FC01E057FF4F85919491A3
:1007D0008FB7F894EC91E22BEC938FBF08950F93B1
:1007E0001F93CF93DF9388E090E00E943812EC01D2
:1007F00080E190E00E943812998388839C01205FF9
:100800003F4F3B832A8321E030E03D832C839F834D
:100810008E8300E110E04C815D8164E471E08E81A3
:100820009F810E946A132E813F818C819D81820F5E
:10083000931F9F838E832A813B818217930721F424
:10084000888199819F838E830150110921F7CE0100
:10085000DF91CF911F910F910895CF93DF9300D037
:1008600000D0CDB7DEB7611571058105910579F02E
:100870009B01AC0169833A834B835C830E94C11165
:1008800029813A814B815C810E94CF1103C060E0D5
:1008900070E0CB010F900F900F900F90DF91CF91F0
:1008A0000895CF93DF93EC0160E170E080E090E089
:1008B0000E942D047983688360E170E080E090E01D
:1008C0000E942D049B01220F331F620F731FFE0134
:1008D000E60FF71F86819781A08589AF9AAFABAFEE
:1008E0008CAF9DAFAEAF1B821A821FAEC05CDF4FD4
:1008F0008AE090E099838883DF91CF91089590E01A
:10090000FC01E458FF4F3491FC01E854FF4F24915F
:10091000FC01EC55FF4FE491EE2309F43BC0332377
:1009200039F1333091F038F43130A9F0323001F53B
:1009300084B58F7D12C0373091F03830A1F034305B
:10094000B9F4809180008F7D03C0809180008F7703
:10095000809380000DC084B58F7784BD09C08091DD
:10096000B0008F7703C08091B0008F7D8093B0007E
:10097000F0E0EE0FFF1FE057FF4FA591B4918FB746
:10098000F894EC91611103C020952E2301C02E2B09
:100990002C938FBF0895EF92FF920F931F93CF93E5
:1009A000DF93EC01623018F08F8588608F876B8B46
:1009B0001C8A80E48D8B80E18E8B80E58F8B8C810F
:1009C0000E94D0038D818F3F11F00E94D0038E8151
:1009D0000E94D0037E0187E0E80EF11C00E010E0E9
:1009E0008F8584FD03C084E090E002C088E090E041
:1009F0000817190744F4F70181917F010E94D00381
:100A00000F5F1F4FEDCF8BE39DE00197F1F760E0A3
:100A10008C810E947F0460E08E810E947F048D8122
:100A20008F3F19F060E00E947F046F8564FD1DC058
:100A300063E0CE010E9444020BE416E4C801019772
:100A4000F1F763E0CE010E944402C8010197F1F77B
:100A500063E0CE010E94440283E592E00197F1F742
:100A600062E0CE010E94440219C0606240E0CE0103
:100A70000E9471028BE496E40197F1F76F85606242
:100A800040E0CE010E94710283E592E00197F1F708
:100A90006F85606240E0CE010E9471026F856062E6
:100AA00040E0CE010E94710284E0888B40E06CE05F
:100AB000CE010E94710240E061E0CE010E9471020D
:100AC0008BE39FE10197F1F782E0898B40E066E0DC
:100AD000CE01DF91CF911F910F91FF90EF900C9479
:100AE00071023FB7F8948091680190916901A091DB
:100AF0006A01B0916B0126B5A89B05C02F3F19F084
:100B00000196A11DB11D3FBFBA2FA92F982F88278D
:100B1000820F911DA11DB11DBC01CD0142E0660FE8
:100B2000771F881F991F4A95D1F708950FB6F8943B
:100B30000F9280917501909176010F900FBE0895EC
:100B40000FB6F8940F92FC01928D0F900FBE81E0CA
:100B5000911180E008950F920FB6F8940F921F92B2
:100B600011242F923F924F925F926F927F928F92B9
:100B70009F92AF92BF92CF92DF92EF92FF920F932C
:100B80001F932F933F934F935F936F937F938F9315
:100B90009F93AF93BF93CF93DF93EF93FF93A09176
:100BA000BC01B091BD010DB60D920EB60D9213BEF3
:100BB000809172018111F1C080917501909176014F
:100BC00001969093760180937501009799F5209195
:100BD0007A0130917B0140917801509179015093D5
:100BE0007B0140937A013093790120937801209121
:100BF00077012F5F20937701E0917A01F0917B01DB
:100C00002081211107C02FEF3FEF30937101209316
:100C1000700110C0E0917A01F0917B010580F681AE
:100C2000E02D0680F781E02D228133813093710120
:100C30002093700120917001309171018217930708
:100C400010F420E09AC020E019E0E0917A01F091E0
:100C50007B013081311107C08FEF9FEF90937101BD
:100C6000809370018AC0E0917A01F0917B01058048
:100C7000F681E02D0680F781E02D428153818417B3
:100C8000950728F4509371014093700176C0AF012D
:100C90004E5F5F4FA285B38564817581E680F780E2
:100CA000EB01FD82EC82C681D7817B836A8311963A
:100CB0006D917C9112976417750721F41296DC935D
:100CC000CE931197138612863C9131503C93A489A0
:100CD000B5891097F1F066857785E088F188EB019A
:100CE000FD82EC82C089D1897B836A831196ED9065
:100CF000FC901297BF01645F7F4FE616F70621F460
:100D00001296DC93CE931197158A148A3C91315038
:100D10003C93A6893091BB013A1710F4A093BB0114
:100D20001A9FD0011124BD0169567E4F7B01DB0162
:100D30001196CD91DC911297D583C4836C817D810E
:100D4000778366836C817D81DB0113965C934E9380
:100D500012975D834C83F386E286E70138813F5F1B
:100D60003883A091BC01B091BD01468956963C9153
:100D7000431708F46ACF21E068CFE091BC01F091FD
:100D8000BD01E689D9E0ED9FF0011124E956FE4F3F
:100D90008081823040F021E006C080915E018F5F4B
:100DA00080935E0120E080915F01811103C02223C6
:100DB00009F466C080917201882321F081E080935C
:100DC0005F015EC010925F01A091BC01B091BD01B6
:100DD000E091BC01F091BD012D913C918789908DEE
:100DE00082179307A8F08091BC019091BD0180917A
:100DF000BC019091BD01259A2D9A2FEF67EA71E60B
:100E0000215060407040E1F700C000001D9AF5CF0E
:100E10008091BB0169E001C08150482F50E0649F80
:100E20009001659F300D1124F901E956FE4F908124
:100E3000992391F3A181B28112960D90BC91A02DBE
:100E4000B283A18326563E4FA217B30731F4129600
:100E50002D913C9113973283218399E0949FF00167
:100E6000959FF00D1124E956FE4F0180F281E02D8F
:100E7000268137813093BD012093BC018093BB0153
:100E8000A091BC01B091BD01CD91CDBFDD91DEBF80
:100E9000FF91EF91DF91CF91BF91AF919F918F9192
:100EA0007F916F915F914F913F912F911F910F9182
:100EB000FF90EF90DF90CF90BF90AF909F908F907A
:100EC0007F906F905F904F903F902F901F900F906A
:100ED0000FBE0F900895FC010FB6F8940F92809109
:100EE000750190917601DB012D913C912F3FBFEF71
:100EF0003B0701F1B0917701A08141815281BA177E
:100F000019F084179507C0F4DC01A41BB50BA217D8
:100F1000B30790F4481B590B240F351FDB012D93A9
:100F20003C93809177018083809175019091760147
:100F30009283818380E001C081E00F900FBE08950D
:100F4000809172018F5F8093720108950E94AB05BA
:100F50001895CF93DF93FC01A085B18582819381A1
:100F600024813581EC013D832C83C481D5819B8311
:100F70008A8311968D919C9112978E179F0721F469
:100F80001296DC93CE931197118610868C91815026
:100F90008C93DF91CF910895CF93DF939C01FB0158
:100FA000DC011196CD91DC911297D383C2838C81A1
:100FB0009D81958384838C819D81DC0113967C9334
:100FC0006E9312977D836C8331872087F90180812E
:100FD0008F5F8083DF91CF9108950F931F93CF93FD
:100FE000DF93DC011596ED91FC911697C681D781B0
:100FF0008E01045F1F4FC8010E94A90780917201F2
:10100000811114C00A501109C8010E94A9079E89C4
:101010008091BB01891710F49093BB01B9E09B9FAD
:10102000C0011124B80189569E4F03C0B8018EE853
:1010300091E00E94CC07E091BC01F091BD019E8936
:101040008689891720F481E080935F0101C080E0E8
:10105000DF91CF911F910F910895EF92FF920F931F
:101060001F93CF93DF93EC010FB6F8940F921E8D70
:101070007C0181E1E80EF11C01E011165CF4898924
:10108000882341F0C7010E94ED07811100935F01A1
:101090001150F3CF8FEF8E8F0F900FBE0FB6F894D5
:1010A0000F921D8D7E0188E0E80EF11C01E0111603
:1010B0005CF48885882341F0C7010E94ED07811107
:1010C00000935F011150F3CF8FEF8D8F0F900FBE04
:1010D000DF91CF911F910F91FF90EF9008950F92A4
:1010E0000FB6F8940F921F9211242F923F924F92B5
:1010F0005F926F927F928F929F92AF92BF92CF92A8
:10110000DF92EF92FF920F931F932F933F934F9392
:101110005F936F937F938F939F93AF93BF93CF937F
:10112000DF93EF93FF93A091BC01B091BD010DB689
:101130000D920EB60D9280917201882321F081E00C
:1011400080935F015EC010925F01A091BC01B091DD
:10115000BD01E091BC01F091BD012D913C918789C9
:10116000908D82179307A8F08091BC019091BD01EA
:101170008091BC019091BD01259A2D9A2FEF87EAAD
:1011800091E6215080409040E1F700C000001D9A98
:10119000F5CF8091BB0169E001C08150482F50E03C
:1011A000649F9001659F300D1124F901E956FE4FAF
:1011B0009081992391F3A181B28112960D90BC91F7
:1011C000A02DB283A18326563E4FA217B30731F458
:1011D00012962D913C9113973283218399E0949F2D
:1011E000F001959FF00D1124E956FE4F0180F28128
:1011F000E02D268137813093BD012093BC0180937F
:10120000BB01A091BC01B091BD01CD91CDBFDD91DD
:10121000DEBFFF91EF91DF91CF91BF91AF919F9191
:101220008F917F916F915F914F913F912F911F917E
:101230000F91FF90EF90DF90CF90BF90AF909F9075
:101240008F907F906F905F904F903F902F901F9066
:101250000F900FBE0F9008958F929F92AF92BF9202
:10126000CF92DF92EF92FF920F931F93CF93DF9372
:101270000FB6F8940F9280917201815080937201A1
:1012800080917201882311F080E0F2C08091BE014C
:101290008823D1F3C0E0D0E029E0F22EEE24E394DD
:1012A00080918E01882351F1E0919301F091940196
:1012B000C681D781CE010C960E94A9078E010E5FD0
:1012C0001F4FC8010E94A9079E898091BB01891701
:1012D00010F49093BB01F99EC0011124B801895606
:1012E0009E4F0E94CC07E091BC01F091BD019E8908
:1012F00086899817A8F2E0925F01D2CFCD2B11F02A
:101300000E948500E0905E01EE2009F4A9C089E00A
:10131000B82EAA24A394CC24CA94DC2C8091720108
:1013200081118CC0C0917501D09176012196D09326
:101330007601C09375012097B9F480917A0190915C
:101340007B01209178013091790130937B012093CA
:101350007A019093790180937801809177018F5F72
:10136000809377010E9485008091700190917101B6
:10137000F12CC817D90708F451C0E0917A01F09117
:101380007B018081811105C0D0927101C0927001F2
:1013900045C0E0917A01F0917B010580F681E02D56
:1013A00006811781D80112968D919C911397C817C9
:1013B000D90728F490937101809370012FC04801E0
:1013C000B2E08B0E911CC4010E94A907F801848928
:1013D0009589892B21F0C8010C960E94A907D80194
:1013E00056968C919091BB01981710F48093BB0195
:1013F000B89EC0011124B40189569E4F0E94CC07AB
:10140000E091BC01F091BD01D80156969C9186896E
:10141000981708F4B2CFFF24F394AFCFE091BC014A
:10142000F091BD01E689BE9EF0011124E956FE4F00
:101430008081823048F0FF24F39406C080915E01E1
:101440008F5F80935E01F12C80915F01811101C05B
:10145000F110A0925F01EA94E11060CF10925E015A
:1014600080915F01882309F40FCF0E946F0881E00B
:101470000F900FBEDF91CF911F910F91FF90EF90D2
:10148000DF90CF90BF90AF909F908F9008950F9373
:101490001F93CF93DF938C01FB01808191818F3F5C
:1014A0002FEF920721F4E801AF81B8850EC0D80173
:1014B000139612962D913C911397E9014881598119
:1014C0008417950710F0D901F4CF12968D919C9155
:1014D000139793838283EC01FD83EC83B583A4830C
:1014E0001396FC93EE93129711870087F801808181
:1014F0008F5F8083DF91CF911F910F910895EF92BD
:10150000FF920F931F93CF93DF93E0916E01F091C1
:101510006F018081882369F10580F681E02D0081CB
:101520001181C681D7817E0182E0E80EF11CC701DE
:101530000E94A907E989FA89CE0109958E85813033
:1015400021F72C853D85200F311F0217130760F40A
:101550003B832A83D987C887B70180916E01909118
:101560006F010E94470AD1CFB801CE010E943C1002
:10157000CCCF80916C0190916D0190936F0180931D
:101580006E01F0936D01E0936C01DF91CF911F919B
:101590000F91FF90EF900895FC0173836283918710
:1015A00080874617570778F0421B530B8485958533
:1015B00048175907C8F4BF016E5F7F4F80916C01D7
:1015C00090916D010DC04217530718F4621773070D
:1015D00058F4BF016E5F7F4F80916E0190916F0153
:1015E0000E94470A80E0089581E00895EF92FF92FB
:1015F0000F931F93CF93DF931F92CDB7DEB77C017C
:1016000000917501109176018091BC019091BD010E
:10161000029669830E94A90769818FEFE816F80690
:1016200099F4662389F06091BC017091BD016E5FF1
:101630007F4F8CE791E00F90DF91CF911F910F9139
:10164000FF90EF900C94CC07E00EF11EE091BC01EE
:10165000F091BD01F382E2826091BC017091BD0105
:10166000E016F10678F480917801909179016E5F2F
:101670007F4F0F90DF91CF911F910F91FF90EF90CF
:101680000C94470A80917A0190917B016E5F7F4FA5
:101690000E94470A8091700190917101E816F90645
:1016A00020F4F0927101E09270010F90DF91CF91E0
:1016B0001F910F91FF90EF900895FC010396928384
:1016C00081832FEF3FEF3483238396838583908735
:1016D000878310820895CF93DF93009751F0EC0138
:1016E0000E94A007CE010E94CD12DF91CF910C94F1
:1016F0002C09DF91CF910895CF93DF93CDB7DEB75B
:101700002C970FB6F894DEBF0FBECDBFE0916E01EF
:10171000F0916F01FF24F3948081882339F0F12C3C
:101720000580F681E02D0081118102C000E010E00B
:101730000E94A0070E9496056C0180916101909122
:101740006201C816D90620F40E947F0A81E001C018
:1017500080E0D0926201C0926101811178C0F110E5
:1017600034C0C016D106C8F10E942C09E0916E0168
:10177000F0916F010580F681E02DE680F780C701CA
:1017800002960E94A907D7011E968C911E97813060
:1017900089F41C966D917C911D97600F711F9801C3
:1017A000A601C7010E94CC0A882321F0B801C70115
:1017B0000E943C10D7015196ED91FC915297C701C0
:1017C000099594E0C92ED12C52C0E0916C01F091A2
:1017D0006D01BB24B39480818111B12CE090730121
:1017E000F09074010FB6F8940F92F701858D8F3F3A
:1017F00009F4158ED7015E968C915E978F3F11F498
:101800005E961C920F900FBEF701828D811115C05C
:101810006091BC017091BD01645F7F4FC70141962B
:101820000E94CC07B11004C0C8018C199D0902C0E8
:101830008FEF9FEF6B2D0E94F60AC7010E942D08C3
:101840000E942C098111BDCF0E946F08BACF0E945F
:101850002C09B7CFEA80FB80F801648575856E0D91
:101860007F1D9701C8010E94CC0A81118DC089E0BB
:10187000782E00917301109174011A86198680E008
:101880005801B1E1AB0EB11C0FB6F8940F92F801FC
:10189000F28CFF2009F49FC0448D4423C9F050E02E
:1018A00086819781840F951F978386832281338158
:1018B0008217930720F08081918197838683D801D6
:1018C00016966D917C911797CE0101960E946A132E
:1018D000FA94F801F28E80819181892BB1F4809184
:1018E000BC019091BD01892B39F0E091BC01F091D0
:1018F000BD0182A18F5F82A38091BC019091BD0147
:10190000D80113969C938E931297F80180858823B3
:1019100039F0C80108960E94ED0781110E946F08F6
:101920000F900FBE898087FCA4CF0C811D81D80148
:101930001A968D919C911B97892B21F0C8010296D4
:101940000E94A9070E949605AC01809161019091C7
:1019500062014817590730F44B875C870E947F0A61
:101960005C854B855093620140936101882D880C02
:10197000990BAA0BBB0B8A30910508F07ACFFC01BA
:10198000EC5CFF4F0C943212D8015196ED91FC9112
:101990005297C8010995F8018685813009F067CF13
:1019A00084859585B701680F791FC8010E943C1096
:1019B0005ECF6A817B81D8011D967C936E931C97C4
:1019C000640F751F9A01C8010E94CC0A50CFC8014C
:1019D0000E946B0B4CCF29853A85232B19F40F906D
:1019E0000FBE94CE811109C0809177018E838091C2
:1019F00075019091760198878F830F900FBE0E949A
:101A0000A0070FB6F8940F92D8015D968C915D9760
:101A10008F3F11F45D961C92F801868D8F3F09F47B
:101A2000168E0F900FBEBE01675F7F4FCE010696E8
:101A30000E946B07811187C0C8010E94A0058823FE
:101A400009F47BC0D8018D919C91892B09F05AC073
:101A50000FB6F8940F92F801E280F380E114F104DC
:101A600009F44EC0D70156968C915697E091BC016F
:101A7000F091BD019689891708F042C01C962D91FE
:101A80003C911D9737FD0CC0E091BC01F091BD0168
:101A900096899601291B31091D963C932E931C971C
:101AA000789EC001112489569E4FF7012285338507
:101AB00028173907F1F44701F2E08F0E911CC40199
:101AC0000E94A907E091BC01F091BD012689D701D0
:101AD00056962C938091BB01821710F42093BB0182
:101AE000729EC0011124B40189569E4F0E94CC07FA
:101AF00007C0E091BC01F091BD018689F701868B9A
:101B00000F900FBEE984FA846091BC017091BD0111
:101B1000645F7F4FC5010E94470A61E0C7010E94D0
:101B2000F60AC8010E942D080E942C09882311F092
:101B300081E0AACE0E946F08FBCFC8010E942D0849
:101B40000E942C09F5CFC8010E942D080E942C0983
:101B5000C8010E94A005882359F3D8CD0F931F9385
:101B6000CF93DF9300D0CDB7DEB789839A830E94ED
:101B7000A00789819A810E9438128C010E942C0949
:101B80000115110511F40E947701C8010F900F9003
:101B9000DF91CF911F910F910895AF92BF92CF9295
:101BA000DF92EF92FF920F931F93CF93DF9300D0BA
:101BB00000D01F92CDB7DEB78C017B011D821C8245
:101BC00090E0580188E0A80EB11C0FB6F8940F926F
:101BD000F801228D838D281708F06DC0D28C448DBA
:101BE00041113FC080819181892B09F052C0F801D9
:101BF000E280F380E114F10411F480E02EC0F701DB
:101C000082A1815082A3268991A12917B1F3811164
:101C1000F4CF5701F2E0AF0EB11CC5010E94A90735
:101C2000F70191A1968B492F50E024E030E0241B6E
:101C3000350B358724878091BB01891710F4909369
:101C4000BB0129E0249FC001259F900D1124B501FF
:101C500089569E4F0E94CC0781E0F80113821282C0
:101C600019C050E0B701F801848195810E946A1380
:101C7000F801248D84819581820F911D9583848341
:101C8000228133818217930720F08081918195838F
:101C9000848380E0D394F801D28E9189992321F036
:101CA000C80141960E94ED0781110E946F080F90B4
:101CB0000FBE81E060C02C813D81232B19F40F9071
:101CC0000FBE58C0911109C080917701898380911E
:101CD0007501909176019B838A830F900FBE0E94BD
:101CE000A0070FB6F8940F92F801858D8F3F09F485
:101CF000158EF801868D8F3F09F4168E0F900FBE5A
:101D0000BE016C5F7F4FCE0101960E946B0781116F
:101D10002CC00FB6F8940F92F801928D838D0F901E
:101D20000FBE98131CC0CC80DD802091BC01309187
:101D3000BD01B901645F7F4FC5010E94470A61E0A0
:101D4000C6010E94F60AC8010E942D080E942C09B3
:101D5000882311F091E039CF0E946F08FBCFC801B2
:101D60000E942D080E942C09F5CFC8010E942D0861
:101D70000E942C0980E00F900F900F900F900F9011
:101D8000DF91CF911F910F91FF90EF90DF90CF9057
:101D9000BF90AF9008957F928F929F92AF92BF9223
:101DA000CF92DF92EF92FF920F931F93CF93DF9327
:101DB000982EC92E762E872EEA01D22ECA010E94B5
:101DC000AE0D5C01892B09F448C188E290E00E94C5
:101DD000AE0D7C010097D9F0DC015896BC92AE9212
:101DE0005797AE0165EA70E0C5010E947313219711
:101DF000D7015796ED91FC915897EC0FFD1FB70155
:101E0000675E7F4FA72DB82DCD01089607C0C5018D
:101E10000E946B0B22C1A817B90749F09D014D9193
:101E2000EB014993BE01E90128812111F4CFD701CB
:101E300090961C922D2D243008F023E0E7012E8B84
:101E400029A31AA21B861A861D8A1C8AF986E8868F
:101E500084E090E0821B91099D878C87FB8AEA8A47
:101E60001BA21CA21DA21EA21FA291E19083DF0152
:101E7000119782E28C93119723E32C9311979C92F4
:101E80001197CC9211971C92119720E82C931197DF
:101E90001C92119722E02C93119723E02C93119719
:101EA00024E02C93119725E02C93119726E02C9396
:101EB000119727E02C93119728E02C93119729E094
:101EC0002C93119720E12C9311979C93119792E1F9
:101ED0009C93119793E19C93119794E19C93119794
:101EE00095E19C93119796E19C93119797E19C93B0
:101EF000119798E19C93119799E19C93119790E227
:101F00009C93119791E29C9311978C93119783E284
:101F10008C9311971C9211971C92119786E28C93C7
:101F2000119787E28C93119788E28C93119789E23D
:101F30008C93119780E38C93119781E38C93B697E0
:101F4000F983E8830115110519F0F801F182E082A7
:101F50000FB6F8940F928091BE018F5F8093BE01FF
:101F60008091BC019091BD01892BD1F5F092BD010A
:101F7000E092BC018091BE01813009F043C087E945
:101F800091E00E945D0B80EA91E00E945D0B89EA7E
:101F900091E00E945D0B82EB91E00E945D0B8EED63
:101FA00091E00E945D0B85ED91E00E945D0B8EE853
:101FB00091E00E945D0B85E891E00E945D0B8CE74B
:101FC00091E00E945D0B8EED91E090937B018093F8
:101FD0007A0185ED91E0909379018093780112C0A8
:101FE0008091E80181110EC0E091BC01F091BD012A
:101FF0009689D70156968C91891720F0F092BD01F1
:10200000E092BC018091E7018F5F8093E701E701D7
:102010008E899091BB01981710F48093BB01D9E091
:102020008D9FC0011124B7016E5F7F4F89569E4F6F
:102030000E94CC070F900FBE8091E801882359F0D1
:10204000E091BC01F091BD019689F701868998174E
:1020500010F40E946F0881E001C08FEFDF91CF91F3
:102060001F910F91FF90EF90DF90CF90BF90AF90B6
:102070009F908F907F900895CF93DF9300D000D0F2
:102080001F92CDB7DEB79C018091730190917401CE
:10209000009761F019827B836A833D832C832091B2
:1020A000E801222329F02091720102C080E005C0DE
:1020B000BE016F5F7F4F0E94CD0D0F900F900F906C
:1020C0000F900F90DF91CF910895789484B582603E
:1020D00084BD84B5816084BD85B5826085BD85B5CC
:1020E000816085BD80916E00816080936E0010924A
:1020F00081008091810082608093810080918100C5
:102100008160809381008091800081608093800055
:102110008091B10084608093B1008091B0008160B3
:102120008093B00080917A00846080937A008091DF
:102130007A00826080937A0080917A008160809337
:102140007A0080917A00806880937A001092C100B2
:102150000E94CA0203ED11E020E040EC50E069E487
:1021600071E089E092E00E94CB0E813009F0B0C0AE
:102170000FB6F8940F928091730190917401892B9E
:1021800009F04BC088EC91E00E945D0B8FEB91E071
:102190000E945D0B88EC91E090936F0180936E013B
:1021A0008FEB91E090936D0180936C0181E590E05D
:1021B0000E94AE0DEC01009761F14F9699838883E0
:1021C0008AE08B8F85E08C8F0FB6F8940F92288170
:1021D00039819B8D4C8D949FC0011124B901680FEA
:1021E000791F7B836A831A8E3D832C83841B91091C
:1021F000820F931F9F838E838FEF8D8F8E8FCE01E3
:1022000008960E945D0BCE0141960E945D0B0F90D7
:102210000FBED0937401C09373010F900FBE8091D5
:10222000730190917401892B09F452C001ED11E002
:1022300023E045E550E06EE471E08CE79BE00E940E
:10224000CB0E813009F044C0F8942FEF3FEF30936C
:102250007101209370018093E80110927601109231
:102260007501A89520EC88E190E00FB6F894A89548
:10227000809360000FBE20936000A091BC01B091DC
:10228000BD01CD91CDBFDD91DEBFFF91EF91DF911B
:10229000CF91BF91AF919F918F917F916F915F91FE
:1022A0004F913F912F911F910F91FF90EF90DF90F1
:1022B000CF90BF90AF909F908F907F906F905F90E6
:1022C0004F903F902F901F900F900FBE0F9008954A
:1022D0000E9477010E94CA02C0E0D0E02097F1F38B
:1022E0000E940000FBCF8F929F92AF92BF92CF923D
:1022F000DF92EF92FF92CF93DF93EC0168817981B7
:102300008A819B81611571058105910521F464E243
:1023100079ED8BE597E02DE133EF41E050E00E944D
:10232000CF1149015A019B01AC01A7EAB1E40E9417
:10233000EE116B017C01ACEEB4EFA50194010E949B
:10234000FC11DC01CB018C0D9D1DAE1DBF1DB7FF27
:1023500003C00197A109B04888839983AA83BB83EE
:10236000BC01CD019F77DF91CF91FF90EF90DF907F
:10237000CF90BF90AF909F908F9008950E9473115F
:10238000089582E091E00E94731108956093020124
:102390007093030180930401909305010895052E25
:1023A00097FB1EF400940E94E61157FD07D00E948F
:1023B000011207FC03D04EF40C94E61150954095A1
:1023C000309521953F4F4F4F5F4F089590958095E1
:1023D000709561957F4F8F4F9F4F08950E942312F4
:1023E000A59F900DB49F900DA49F800D911D112469
:1023F0000895B7FF0C94EE110E94EE11821B930B0F
:102400000895A1E21A2EAA1BBB1BFD010DC0AA1F35
:10241000BB1FEE1FFF1FA217B307E407F50720F04D
:10242000A21BB30BE40BF50B661F771F881F991FC8
:102430001A9469F760957095809590959B01AC0111
:10244000BD01CF010895A29FB001B39FC001A39F1A
:10245000700D811D1124911DB29F700D811D1124DD
:10246000911D0895EE0FFF1F0590F491E02D099442
:10247000CF93DF938230910510F482E090E0E091F9
:10248000EB01F091EC0120E030E0C0E0D0E03097CB
:1024900011F14081518148175907C0F04817590779
:1024A00061F482819381209719F09B838A832BC0EA
:1024B0009093EC018093EB0126C02115310519F0B2
:1024C0004217530718F49A01BE01DF01EF010280A1
:1024D000F381E02DDCCF2115310509F1281B390BE3
:1024E0002430310590F412968D919C9113976115CB
:1024F000710521F0FB019383828304C09093EC016A
:102500008093EB01FD01329644C0FD01E20FF31F01
:1025100081939193225031092D933C933AC020919D
:10252000E9013091EA01232B41F420910801309117
:1025300009013093EA012093E901209106013091CD
:1025400007012115310541F42DB73EB740910A012D
:1025500050910B01241B350BE091E901F091EA0148
:10256000E217F307A0F42E1B3F0B2817390778F06A
:10257000AC014E5F5F4F2417350748F04E0F5F1FC9
:102580005093EA014093E9018193919302C0E0E006
:10259000F0E0CF01DF91CF9108950F931F93CF9378
:1025A000DF93009709F48CC0FC01329713821282EA
:1025B0000091EB011091EC010115110581F42081CE
:1025C0003181820F931F2091E9013091EA01281790
:1025D000390779F5F093EA01E093E90171C0D80178
:1025E00040E050E0AE17BF0750F412962D913C9199
:1025F0001397AD012115310509F1D901F3CF9D01E3
:10260000DA013383228360817181860F971F8217DD
:10261000930769F4EC0128813981260F371F2E5F5B
:102620003F4F318320838A819B8193838283452B13
:1026300029F4F093EC01E093EB0142C01396FC9374
:10264000EE931297ED01499159919E01240F351F88
:10265000E217F30771F480819181840F951F029630
:1026600011969C938E938281938113969C938E9363
:102670001297E0E0F0E0D80112968D919C911397AB
:10268000009719F0F8018C01F6CF8D919C9198017B
:102690002E5F3F4F820F931F2091E9013091EA0195
:1026A0002817390769F4309729F41092EC01109239
:1026B000EB0102C0138212821093EA010093E90138
:1026C000DF91CF911F910F91089581E090E0F894F0
:1026D0000C947A13FB01DC0102C001900D92415071
:1026E0005040D8F70895DC0101C06D93415050402F
:0826F000E0F70895F894FFCF14
:1026F8003200010000000000ED0180000800000029
:102708000800000008080800080008000808080079
:102718000308030003080000080303000800030877
:102728000808030803080308080808080000000050
:10273800C402A303205247420049444C4500546D4B
:06274800722053766300CD
:00000001FF
